{
  "contractName": "stocks",
  "abi": [
    {
      "inputs": [],
      "stateMutability": "nonpayable",
      "type": "constructor"
    },
    {
      "inputs": [
        {
          "internalType": "bytes4",
          "name": "symbol",
          "type": "bytes4"
        },
        {
          "internalType": "uint256",
          "name": "price",
          "type": "uint256"
        },
        {
          "internalType": "uint256",
          "name": "volume",
          "type": "uint256"
        }
      ],
      "name": "setStock",
      "outputs": [],
      "stateMutability": "nonpayable",
      "type": "function"
    },
    {
      "inputs": [
        {
          "internalType": "bytes4",
          "name": "symbol",
          "type": "bytes4"
        }
      ],
      "name": "getStockPrice",
      "outputs": [
        {
          "internalType": "uint256",
          "name": "",
          "type": "uint256"
        }
      ],
      "stateMutability": "view",
      "type": "function"
    },
    {
      "inputs": [
        {
          "internalType": "bytes4",
          "name": "symbol",
          "type": "bytes4"
        }
      ],
      "name": "getStockVolume",
      "outputs": [
        {
          "internalType": "uint256",
          "name": "",
          "type": "uint256"
        }
      ],
      "stateMutability": "view",
      "type": "function"
    }
  ],
  "bytecode": "0x608060405234801561001057600080fd5b50336000806101000a81548173ffffffffffffffffffffffffffffffffffffffff021916908373ffffffffffffffffffffffffffffffffffffffff1602179055506103c9806100606000396000f3fe608060405234801561001057600080fd5b50600436106100415760003560e01c80630b1dc17c146100465780638604e3db146100a7578063945aaa4414610108575b600080fd5b6100916004803603602081101561005c57600080fd5b8101908080357bffffffffffffffffffffffffffffffffffffffffffffffffffffffff19169060200190929190505050610169565b6040518082815260200191505060405180910390f35b6100f2600480360360208110156100bd57600080fd5b8101908080357bffffffffffffffffffffffffffffffffffffffffffffffffffffffff191690602001909291905050506101c7565b6040518082815260200191505060405180910390f35b6101676004803603606081101561011e57600080fd5b8101908080357bffffffffffffffffffffffffffffffffffffffffffffffffffffffff191690602001909291908035906020019092919080359060200190929190505050610225565b005b600060016000837bffffffffffffffffffffffffffffffffffffffffffffffffffffffff19167bffffffffffffffffffffffffffffffffffffffffffffffffffffffff19168152602001908152602001600020600101549050919050565b600060016000837bffffffffffffffffffffffffffffffffffffffffffffffffffffffff19167bffffffffffffffffffffffffffffffffffffffffffffffffffffffff19168152602001908152602001600020600001549050919050565b60008054906101000a900473ffffffffffffffffffffffffffffffffffffffff1673ffffffffffffffffffffffffffffffffffffffff163373ffffffffffffffffffffffffffffffffffffffff16146102c9576040517f08c379a00000000000000000000000000000000000000000000000000000000081526004018080602001828103825260228152602001806103726022913960400191505060405180910390fd5b6102d1610357565b60405180604001604052808481526020018381525090508060016000867bffffffffffffffffffffffffffffffffffffffffffffffffffffffff19167bffffffffffffffffffffffffffffffffffffffffffffffffffffffff19168152602001908152602001600020600082015181600001556020820151816001015590505050505050565b60405180604001604052806000815260200160008152509056fe4f6e6c79206f776e65722063616e2063616c6c20746869732066756e6374696f6e2ea2646970667358221220b3fa10be36b2d3da65058cf5324baa15cd3cca740103d95c4ece2cecda5a31b564736f6c63430007010033",
  "immutableReferences": {},
  "source": "// SPDX-License-Identifier: MIT\r\n\r\npragma solidity ^0.7.1;\r\n\r\ncontract stocks {\r\n    address owner;\r\n    constructor() {\r\n        owner = msg.sender;\r\n    }\r\n    /// quote structure\r\n    struct stock {\r\n        uint price;\r\n        uint volume;\r\n    }\r\n    \r\n    mapping( bytes4 => stock) stockQuote;\r\n    \r\n     /// Contract owner\r\n    //address oracleOwner;\r\n    modifier onlyOwner {\r\n        require( msg.sender == owner,\"Only owner can call this function.\");\r\n        _;\r\n    }\r\n    /// Set the value of a stock\r\n    function setStock(bytes4 symbol, uint price, uint volume) onlyOwner public {\r\n        stock memory _Stock = stock({price: price, volume: volume});\r\n        stockQuote[symbol] = _Stock;\r\n    }\r\n    \r\n    /// Get the value of a stock\r\n    function getStockPrice(bytes4 symbol) public view returns (uint) {\r\n        return stockQuote[symbol].price;\r\n    }\r\n    \r\n    /// Get the value of volume traded for a stock\r\n    function getStockVolume(bytes4 symbol) public view returns (uint) {\r\n        return stockQuote[symbol].volume;\r\n    }\r\n}",
  "sourcePath": "C:/work/blockchain_course/semester2/design_patterns/new-oracle/src/stockContract/contracts/Stock.sol",
  "compiler": {
    "name": "solc",
    "version": "0.7.1+commit.f4a555be.Emscripten.clang"
  },
  "schemaVersion": "3.3.3",
  "updatedAt": "2021-02-09T18:37:02.293Z",
  "devdoc": {
    "kind": "dev",
    "methods": {},
    "version": 1
  },
  "userdoc": {
    "kind": "user",
    "methods": {
      "getStockPrice(bytes4)": {
        "notice": "Get the value of a stock"
      },
      "getStockVolume(bytes4)": {
        "notice": "Get the value of volume traded for a stock"
      },
      "setStock(bytes4,uint256,uint256)": {
        "notice": "Set the value of a stock"
      }
    },
    "version": 1
  }
}